:100000000C945D000C9485000C9485000C94850084
:100010000C9485000C9485000C9485000C9485004C
:100020000C9485000C9485000C9485000C9485003C
:100030000C9485000C9485000C9485000C9465014B
:100040000C941B010C9485000C9485000C94850085
:100050000C9485000C9485000C9485000C9485000C
:100060000C9485000C94850000000008000201003B
:100070000003040700000000000000000000000072
:10008000250028002B0000000000240027002A0083
:10009000040404040404040402020202020203032E
:1000A0000303030301020408102040800102040836
:1000B0001020010204081020830411241FBECFEF7A
:1000C000D8E0DEBFCDBF11E0A0E0B1E0ECE6F9E0A2
:1000D00002C005900D92A632B107D9F721E0A6E241
:1000E000B1E001C01D92A737B207E1F710E0CDE5FE
:1000F000D0E004C02197FE010E94AE04CC35D107A8
:10010000C9F70E94F6030C94B4040C94000090E02C
:10011000FC01EC55FF4F249180579F4FFC018491C7
:10012000882399F090E0880F991FFC01EA57FF4F50
:10013000A591B491FC01E458FF4F859194918FB73C
:10014000F894EC91E22BEC938FBF089590E0FC01C2
:10015000E859FF4F2491FC01EC55FF4F3491FC010D
:10016000E057FF4FE491EE23C9F0222339F023300A
:1001700001F1A8F4213019F1223029F1F0E0EE0F5D
:10018000FF1FE458FF4FA591B4918FB7F894EC91FD
:10019000611126C030953E233C938FBF08952730D0
:1001A000A9F02830C9F0243049F7809180008F7D74
:1001B00003C0809180008F7780938000DFCF84B56B
:1001C0008F7784BDDBCF84B58F7DFBCF8091B0006E
:1001D0008F778093B000D2CF8091B0008F7DF9CF20
:1001E0003E2BDACF0F931F93CF93DF93D82F60E08E
:1001F000809149010E94A60060E0809147010E9421
:10020000A6001091470100914501C8E06D2F617073
:10021000802F0E94A600D69561E0812F0E94A60043
:1002200060E0812F0E94A600C15081F7DF91CF913D
:100230001F910F9108951F920F920FB60F921124E4
:100240002F933F938F939F93AF93BF9380912C01F4
:1002500090912D01A0912E01B0912F0130912B0191
:1002600023E0230F2D3758F50196A11DB11D2093D2
:100270002B0180932C0190932D01A0932E01B0931C
:100280002F018091270190912801A0912901B0911F
:100290002A010196A11DB11D809327019093280189
:1002A000A0932901B0932A01BF91AF919F918F91A3
:1002B0003F912F910F900FBE0F901F90189526E839
:1002C000230F0296A11DB11DD2CF1F920F920FB620
:1002D0000F9211240F931F932F933F934F935F938C
:1002E0006F937F938F939F93AF93BF93CF93EF932E
:1002F000FF9361E08DE00E94A600809126018F317E
:10030000C8F4809126018F5F80932601FF91EF91C1
:10031000CF91BF91AF919F918F917F916F915F919D
:100320004F913F912F911F910F910F900FBE0F9002
:100330001F90189580914C01782F7270682F64700F
:10034000582F5870482F4071382F3072282F207442
:100350009091370180FFE8C19061909337018091BF
:100360003901772309F4E2C18061809339018091DA
:100370003B01662309F4DCC1806180933B018091DD
:100380003D01552309F4D6C1806180933D018091E0
:100390003F01442309F4D0C1806180933F018091E3
:1003A0004101332309F4CAC18061809341018091E6
:1003B0004301222309F4C4C18061809343018091E9
:1003C0004D01782F7270682F6470582F5870482F25
:1003D0004071382F3072282F20749091370180FFA0
:1003E000B1C198609093370180913901772309F466
:1003F000ABC188608093390180913B01662309F489
:10040000A5C1886080933B0180913D01552309F48B
:100410009FC1886080933D0180913F01442309F48E
:1004200099C1886080933F0180914101332309F491
:1004300093C188608093410180914301222309F494
:100440008DC188608093430180914E01782F727036
:10045000682F6470582F5870482F4071382F3072B1
:10046000282F20749091370180FF7AC19460909377
:10047000370180913901772309F474C18460809336
:10048000390180913B01662309F46EC18460809339
:100490003B0180913D01552309F468C1846080933C
:1004A0003D0180913F01442309F462C1846080933F
:1004B0003F0180914101332309F45CC18460809342
:1004C000410180914301222309F456C18460809345
:1004D000430180914F01782F7270682F6470582FFC
:1004E0005870482F4071382F3072282F2074909107
:1004F000370180FF43C192609093370180913901A9
:10050000772309F43DC182608093390180913B01DA
:10051000662309F437C1826080933B0180913D01DD
:10052000552309F431C1826080933D0180913F01E0
:10053000442309F42BC1826080933F0180914101E3
:10054000332309F425C182608093410180914301E6
:10055000222309F41FC182608093430180915001DE
:10056000782F7270682F6470582F5870482F407120
:10057000382F3072282F20749091380180FF0CC1E1
:1005800091609093380180913A01772309F406C174
:10059000816080933A0180913C01662309F400C197
:1005A000816080933C0180913E01552309F4FAC09B
:1005B000816080933E0180914001442309F4F4C09E
:1005C00081608093400180914201332309F4EEC0A1
:1005D00081608093420180914401222309F4E8C0A4
:1005E00081608093440180915101782F7270682F4F
:1005F0006470582F5870482F4071382F3072282F50
:1006000020749091370180FFD5C09064909337019A
:1006100080913901772309F4CFC080648093390138
:1006200080913B01662309F4C9C0806480933B013B
:1006300080913D01552309F4C3C0806480933D013E
:1006400080913F01442309F4BDC0806480933F0141
:1006500080914101332309F4B7C080648093410144
:1006600080914301222309F4B1C080648093430147
:1006700080915201782F7270682F6470582F5870D3
:10068000482F4071382F3072282F207490913701F5
:1006900080FF9EC090689093370180913901772345
:1006A00009F498C080688093390180913B016623EA
:1006B00009F492C0806880933B0180913D015523ED
:1006C00009F48CC0806880933D0180913F014423F0
:1006D00009F486C0806880933F01809141013323F3
:1006E00009F480C0806880934101809143012223F6
:1006F00009F47AC080688093430107E311E0C0E009
:100700008C2F806C0E94F200F80181918F010E9471
:10071000F20061E0809149010E94A600CF5FCE30D7
:1007200079F710922601F2CD9F7E17CE8F7E1DCED7
:100730008F7E23CE8F7E29CE8F7E2FCE8F7E35CE9D
:100740008F7E3BCE977F4ECE877F54CE877F5ACE0B
:10075000877F60CE877F66CE877F6CCE877F72CEA5
:100760009B7F85CE8B7F8BCE8B7F91CE8B7F97CEE1
:100770008B7F9DCE8B7FA3CE8B7FA9CE9D7FBCCE62
:100780008D7FC2CE8D7FC8CE8D7FCECE8D7FD4CED5
:100790008D7FDACE8D7FE0CE9E7FF3CE8E7FF9CE39
:1007A0008E7FFFCE8E7F05CF8E7F0BCF8E7F11CFBA
:1007B0008E7F17CF9F7B2ACF8F7B30CF8F7B36CF1B
:1007C0008F7B3CCF8F7B42CF8F7B48CF8F7B4ECFB1
:1007D0009F7761CF8F7767CF8F776DCF8F7773CF0D
:1007E0008F7779CF8F777FCF8F7785CF789484B5C8
:1007F000826084BD84B5816084BD85B5826085BD1D
:1008000085B5816085BD80916E00816080936E00AA
:10081000109281008091810082608093810080919C
:10082000810081608093810080918000816080934D
:1008300080008091B10084608093B1008091B0000D
:1008400081608093B00080917A00846080937A0008
:1008500080917A00826080937A0080917A00816032
:1008600080937A0080917A00806880937A00109259
:10087000C10083E00E94F20061E0809149010E9482
:10088000A60084E40E94F20061E0809149010E9488
:10089000A60088E80E94F20061E0809149010E9470
:1008A000A600C0E08C2F806C0E94F20080E00E94C5
:1008B000F20061E0809149010E94A600CF5FCE3036
:1008C00089F78FB7F89440912C0150912D016091D8
:1008D0002E0170912F018FBF8DE00E94870060E094
:1008E0008DE00E94A60080916E00846080936E006F
:1008F000C0E0D0E060E08DE00E94A6002097D1F338
:100900000E940000F7CFCF93DF9385E2E0E0F1E0B3
:10091000ABE4B1E001900D928A95E1F783E00E948B
:100920008700C0E3D1E083E090E0988F8F8B61E097
:100930000E94A60084E00E94870082E00E94870057
:1009400082E090E09A8F898F61E00E94A60084E0A7
:1009500090E09E8B8D8BDF91CF910895EE0FFF1F5E
:0C0960000590F491E02D0994F894FFCF6D
:10096C003F065B4F666D7D077F6F777C395E7971D3
:10097C003D76041E633848545C7367316D783E1CB9
:06098C0002766E5B000024
:00000001FF
