:1000000037C044C043C042C041C040C0CCC03EC065
:100010003DC03CC03BC03AC039C038C037C036C014
:1000200035C034C033C000000000000000020000F2
:100030000001030400000000010202010408102076
:10004000400102040810204080040404010104045B
:1000500004040402020202020202020100003B0048
:1000600038000000320000003A0037000000310084
:1000700011241FBECFEDCDBF20E0A0E6B0E001C04F
:100080001D92A936B207E1F788D0A2C3B9CF61E0CB
:1000900087E0A0C15DD09B01AC0160E070E088E426
:1000A00092E407D220E030E040E251E426D366D269
:1000B00087E023D168EE73E080E090E0E5C090989F
:1000C000889A8FEB93E00197F1F700C000008898C1
:1000D00090EA9A95F1F780B3E7E4F3E03197F1F70E
:1000E00000C00000817008959098889A82E08A95F7
:1000F000F1F700C0889895E29A95F1F7000080B377
:1001000098E79A95F1F78170089599E0915071F010
:100110009098889A22E02A95F1F700C080FD88988F
:1001200020EA2A95F1F788988695F0CF0895CF9325
:10013000DF93D9E0C0E0D15039F0D6DF879588272A
:100140008795C695C82BF7CF8C2FDF91CF91089557
:10015000CF93F894B4DF8CECD8DF84E4D6DFC4DF2F
:100160008823E9F3ACDF8CECD0DF8EEBCEDFDFDF72
:10017000C82FDDDF7894682F70E0762F66276C0F2C
:10018000711D072E000C880B990B2BD220E030E05C
:1001900040E85DE3B2D2CF91089581B781BF9ED090
:1001A00076DF78DFFECF1F920F920FB60F921124E9
:1001B0002F933F938F939F93AF93BF938091610051
:1001C00090916200A0916300B09164003091600052
:1001D00026E0230F2D3768F129E8230F0396A11D90
:1001E000B11D209360008093610090936200A09302
:1001F0006300B09364008091650090916600A091C7
:100200006700B09168000196A11DB11D8093650043
:1002100090936600A0936700B0936800BF91AF9180
:100220009F918F913F912F910F900FBE0F901F9034
:1002300018950296A11DB11DD4CF3FB7F8948091B7
:10024000650090916600A0916700B091680022B7A8
:1002500008B601FE05C02F3F19F00196A11DB11D82
:100260003FBFBA2FA92F982F8827BC01CD01620F5D
:10027000711D811D911D43E0660F771F881F991F17
:100280004A95D1F708950895CF92DF92EF92FF92A9
:10029000CF93DF936B017C01D0DFEB01C114D1045C
:1002A000E104F10461F0EFDFC8DF6C1B7D0B683EF9
:1002B0007340A0F3C114D104E104F10439F4DF91D7
:1002C000CF91FF90EF90DF90CF90089581E0C81A12
:1002D000D108E108F108C851DC4FE6CF80B7826051
:1002E00080BF80B7816080BF83B7887F836083BF12
:1002F000789489B7826089BF08951F93CF93DF9365
:10030000182FEB0161E066D01C161D0634F060E08A
:10031000812FDF91CF911F919BC0CF3FD10514F06A
:1003200061E0F6CFE12FF0E0EA5DFF4FE491E130CC
:1003300059F480B7806880BF80B78F7B80BFC6BF0D
:10034000DF91CF911F910895E23041F480B7806230
:1003500080BF80B78F7E80BFCCBFF2CFE33049F43F
:100360008FB580688FBD8FB58F7B8FBDDBBDCABD5C
:10037000E7CFE43049F48FB580628FBD8FB58F7EB3
:100380008FBDD9BDC8BDDCCFC038D1054CF6BFCFBD
:10039000813039F480B78F7780BF80B78F7B80BF83
:1003A0000895823031F480B78F7D80BF80B78F7E13
:1003B000F6CF833039F48FB58F778FBD8FB58F7BB4
:1003C0008FBD08958430E9F78FB58F7D8FBD8FB5D0
:1003D0008F7EF6CFCF93DF9387FD8FEF90E0FC0108
:1003E000E85CFF4F2491865B9F4FFC01849188233A
:1003F000C9F090E0880F991FFC01EA59FF4FA591C1
:10040000B491FC01E45AFF4FC591D49161110DC024
:100410009FB7F8948C91209582238C938881282310
:1004200028839FBFDF91CF910895623051F49FB729
:10043000F8943C91822F809583238C93E8812E2B16
:10044000EFCF8FB7F894EC912E2B2C938FBFEACF80
:100450001F93CF93DF93162F87FD8FEF282F30E068
:10046000F901EA5DFF4F8491F901E85CFF4FD491F7
:10047000F901E65BFF4FC491CC2399F0811188DF2D
:10048000EC2FF0E0EE0FFF1FE45AFF4FA591B4915F
:100490008FB711110AC0F894EC91D095DE23DC934C
:1004A0008FBFDF91CF911F910895F894EC91DE2BCF
:1004B000F6CF5058BB27AA270ED0E5C0D6D030F0D3
:1004C000DBD020F031F49F3F11F41EF4CBC00EF4CA
:1004D000E095E7FBC1C0E92FE7D080F3BA176207C8
:1004E00073078407950718F071F49EF5FFC00EF4AA
:1004F000E0950B2EBA2FA02D0B01B90190010C0134
:10050000CA01A0011124FF27591B99F0593F50F44B
:10051000503E68F11A16F040A22F232F342F4427A3
:10052000585FF3CF469537952795A795F04053959B
:10053000C9F77EF41F16BA0B620B730B840BBAF06B
:100540009150A1F0FF0FBB1F661F771F881FC2F7D6
:100550000EC0BA0F621F731F841F48F487957795EA
:100560006795B795F7959E3F08F0B3CF9395880FA1
:1005700008F09927EE0F97958795089504D0689411
:10058000B111B5C0089598D088F09F5790F0B92F59
:100590009927B751A0F0D1F0660F771F881F991FD8
:1005A0001AF0BA95C9F712C0B13081F09FD0B1E00E
:1005B00008959CC0672F782F8827B85F39F0B93F1E
:1005C000CCF3869577956795B395D9F73EF49095DA
:1005D0008095709561957F4F8F4F9F4F0895E89458
:1005E00009C097FB3EF490958095709561957F4F7B
:1005F0008F4F9F4F9923A9F0F92F96E9BB27939529
:10060000F695879577956795B795F111F8CFFAF438
:10061000BB0F11F460FF1BC06F5F7F4F8F4F9F4F69
:1006200016C0882311F096E911C0772321F09EE8C7
:10063000872F762F05C0662371F096E8862F70E02D
:1006400060E02AF09A95660F771F881FDAF7880F07
:100650009695879597F9089597F99F6780E870E0D8
:1006600060E008959FEF80EC089500240A94161628
:10067000170618060906089500240A941216130690
:10068000140605060895092E0394000C11F488231E
:1006900052F0BB0F40F4BF2B11F460FF04C06F5F3A
:1006A0007F4F8F4F9F4F089557FD9058440F551F10
:1006B00059F05F3F71F04795880F97FB991F61F0E4
:1006C0009F3F79F087950895121613061406551F5B
:1006D000F2CF4695F1DF08C0161617061806991FC7
:1006E000F1CF86957105610508940895E894BB27BC
:1006F00066277727CB0197F908950AD0C4CFB5DFD5
:1007000028F0BADF18F0952309F0A6CFABCFEFCFD2
:10071000CBDFA8F39923D9F35523C9F3950F50E004
:10072000551FAA27EE27FF27BB27002408946795AB
:1007300020F4E20FF31FB41F0A1E220F331F441FC1
:10074000AA1F6695A9F7779530F4F30FB41F0A1E18
:10075000121E08F46395330F441FAA1F221F7695BB
:1007600099F7879520F4B40F0A1E121E631F440FD9
:10077000AA1F221F331F8695A9F7862F712D602D82
:1007800011249F5750408AF0E1F088234AF0EE0F81
:10079000FF1FBB1F661F771F881F91505040A9F78E
:1007A0009E3F510570F058CFA2CF5F3FECF3983ECB
:1007B000DCF3869577956795B795F795E7959F5FF5
:1007C000C1F7FE2B880F911D9695879597F908958F
:0407D000F894FFCFCB
:00000001FF
