:100000003AC05EC05DC05CC05BC05AC009C558C084
:1000100057C056C055C054C053C052C051C050C044
:100020004FC04EC04DC04CC04BC00000000000008F
:1000300000020000000103040000000001020201B0
:100040000408102040010204081020408004040429
:100050000101040404040402020202020202020179
:1000600000003B0038000000320000003A0037007A
:1000700000003100D10011241FBECFE5D1E0DEBF6A
:10008000CDBF10E0A0E6B0E0E8ECFDE002C00590D6
:100090000D92A639B107D9F721E0A6E9B0E001C079
:1000A0001D92A230B207E1F710E0CBE3D0E003C02D
:1000B0002197FE0181D6CA33D107D1F72ED682C649
:1000C0009FCF61E086E990E096D460E086E990E019
:1000D00084D486E990E06AD460E27DE886E991E61E
:1000E0005EC16F927F928F929F92AF92BF92CF929A
:1000F000DF92EF92FF920F931F93CF93DF931DD266
:100100005C011BD26C0113D27C0111D28C0109D28B
:100110004C0107D23C01CAE0D0E0C501BE0103D6C4
:1001200040E0682F86E990E07DD2C601BE01FBD594
:1001300041E086E990E076D2C701BE01F4D542E005
:10014000682F86E990E06ED2C801BE01ECD543E08D
:1001500086E990E067D2C401BE01E5D544E0682F8E
:1001600086E990E05FD2C301BE01DDD545E086E9B6
:1001700090E058D286E990E0DF91CF911F910F91E6
:10018000FF90EF90DF90CF90BF90AF909F908F90B7
:100190007F906F9021C2A5DF68EE73E080E090E071
:1001A000BCC420E130E04FE050E06EE070E086E952
:1001B00090E0C9C16F927F928F929F92AF92BF924F
:1001C000CF92DF92EF92FF920F931F93CF93DF9323
:1001D0006B017C01EA018CE3882E912CA12CB12CBF
:1001E000C701A5019401B2D56883CA01B901A5016F
:1001F0009401ACD56983C701B60120E13EE040E03F
:1002000050E0A4D5CA01B90128E130E040E050E057
:100210009DD56A83C701B60120E831E541E050E091
:1002200095D569017A01CA01B9016C5F7F4F8F4F83
:100230009F4F27E030E040E050E088D56F5F6B8350
:10024000812C912C540140E094E6692E712C00E938
:1002500011E0242F30E02E54384FF901E370FF27CE
:100260003097E9F4C901B3015ED5892B29F4C9019E
:10027000B80159D5892B99F48EE691E0A0E0B0E061
:10028000880E991EAA1EBB1ED501C401AA27BB2732
:10029000C816D906EA06FB0638F04F5FDACF8DE6BE
:1002A00091E0A0E0B0E0ECCF4E83C90164E670E0DD
:1002B0003AD58C01C90160E971E035D5309729F450
:1002C00001151105E1F40097D1F04DE651E060E031
:1002D00070E0841A950AA60AB70AC818D908EA086D
:1002E000FB08AAE8B0E020E0213071F4309791F5E6
:1002F0000115110511F4009769F54DE106C04EE6B0
:1003000051E060E070E0E5CF4C9150E070E060E0DB
:1003100031E0320FC416D506E606F70640F0C41ADF
:10032000D50AE60AF70A1196232F3C30E9F62F5F2B
:100330002D83C394CC82DF91CF911F910F91FF90B9
:10034000EF90DF90CF90BF90AF909F908F907F9075
:100350006F9008954CE1D9CFCF92DF92EF92FF9248
:10036000C090EE00D090EF00E090F000F090F1002F
:10037000C616D706E806F90669F06B017C0142EF64
:1003800050E018DFC092EE00D092EF00E092F00053
:10039000F092F100FF90EF90DF90CF9008950F93CF
:1003A0001F936093EA007093EB008093EC009093AE
:1003B000ED00009160001091610020916200309189
:1003C0006300DC01CB01800F911FA21FB31F80933C
:1003D000E2009093E300A093E400B093E50082E094
:1003E00090E09093E1008093E00064D36093E60096
:1003F0007093E7008093E8009093E9001F910F91BC
:100400000895CF92DF92EF92FF920F931F9352D3F2
:10041000C090E600D090E700E090E800F090E9009E
:100420008B019C010C191D092E093F098091EA00DE
:100430009091EB00A091EC00B091ED00083E1340CC
:1004400021053105D0F00196A11DB11D8093EA0070
:100450009093EB00A093EC00B093ED00B701A601E0
:1004600048515C4F6F4F7F4F4093E6005093E70039
:100470006093E8007093E900CACF4091E200509188
:10048000E3006091E4007091E50084179507A607EA
:10049000B70768F0E091DE00F091DF00309739F0A7
:1004A0000995611571058105910581F078DF6091ED
:1004B000EA007091EB008091EC009091ED001F91AB
:1004C0000F91FF90EF90DF90CF9008958091EA0018
:1004D0009091EB00A091EC00B091ED004091600094
:1004E000509161006091620070916300840F951FCC
:1004F000A61FB71F8093E2009093E300A093E4004F
:10050000B093E50081E090E02091E0003091E100BF
:10051000232B11F490E080E09093E1008093E000C1
:10052000C6CF6FDF19DF8091F40090E0089569DF96
:1005300013DF8091F30090E0089563DF0DDF809179
:10054000F20090E00895CF92DF92EF92FF920F9326
:100550001F93CF93DF93EC01F62EE72E042FC52EC9
:10056000122FD32E86E2E4E6F0E0DE015B960190E6
:100570000D928A95E1F761E0842F2AD30F8BC88E04
:1005800061E0802F63D361E08F2D22D361E0812F62
:100590001FD3198FDA8E61E0812F58D3FD8AEE8A3E
:1005A000DF91CF911F910F91FF90EF90DF90CF904F
:1005B00008951F93CF93DF93EC01162F60E0898D90
:1005C00045D360E08F8942D3212F40E06F898D8928
:1005D000DF91CF911F916BC3EF92FF920F931F9307
:1005E000CF938C017C0187E0E80EF11CC0E06C2FFA
:1005F000606CC801DEDF61E070E080E090E08DD2E9
:10060000F70161917F01C801D4DF61E0F801818DBC
:100610001DD3CF5FCE3059F7CF911F910F91FF902F
:10062000EF900895DF92EF92FF920F931F93CF9375
:10063000DF93DC01FC01E60FF11DF38D8F2F81703C
:10064000D82EEF2FE2700F2F04701F2F1870DF2F9E
:10065000D071CF2FC072F074473008F04DC050E019
:10066000CA01845B9C4F7C0117967C911797199661
:100670006C9119971B965C911B971D963C911D9749
:100680001F962C911F9751969C91519753968C9140
:100690005397EF92FF92089506C044C079C0AEC050
:1006A000E3C018C14DC1DD2079F1706217967C93CB
:1006B0001797EE2359F1606219966C9319970023EE
:1006C00039F150621B965C931B97112319F130622C
:1006D0001D963C931D97DD23F9F020621F962C9305
:1006E0001F97CC23D9F0906251969C935197FF238A
:1006F000B9F0806253968C93DF91CF911F910F9147
:10070000FF90EF90DF9008957F7DD0CF6F7DD4CFA5
:100710005F7DD8CF3F7DDCCF2F7DE0CF9F7DE4CFC5
:100720008F7DE8CFDD2031F1706117967C931797AC
:10073000EE2311F1606119966C9319970023F1F083
:1007400050611B965C931B971123D1F030611D966D
:100750003C931D97DD23B1F020611F962C931F97CA
:10076000CC2391F0906151969C935197FF2371F0A7
:100770008061C0CF7F7ED9CF6F7EDDCF5F7EE1CF3E
:100780003F7EE5CF2F7EE9CF9F7EEDCF8F7EB2CF2C
:10079000DD2031F1786017967C931797EE2311F1E5
:1007A000686019966C9319970023F1F058601B96B6
:1007B0005C931B971123D1F038601D963C931D97D5
:1007C000DD23B1F028601F962C931F97CC2391F066
:1007D000986051969C935197FF2371F088608ACF5F
:1007E000777FD9CF677FDDCF577FE1CF377FE5CFE9
:1007F000277FE9CF977FEDCF877F7CCFDD2031F159
:10080000746017967C931797EE2311F16460199624
:100810006C9319970023F1F054601B965C931B971F
:100820001123D1F034601D963C931D97DD23B1F068
:1008300024601F962C931F97CC2391F094605196BF
:100840009C935197FF2371F0846054CF7B7FD9CF65
:100850006B7FDDCF5B7FE1CF3B7FE5CF2B7FE9CFA8
:100860009B7FEDCF8B7F46CFDD2031F170681796EF
:100870007C931797EE2311F1606819966C93199782
:100880000023F1F050681B965C931B971123D1F065
:1008900030681D963C931D97DD23B1F020681F96AC
:1008A0002C931F97CC2391F0906851969C9351976D
:1008B000FF2371F080681ECF7F77D9CF6F77DDCFB0
:1008C0005F77E1CF3F77E5CF2F77E9CF9F77EDCF08
:1008D0008F7710CFDD2031F1726017967C931797D8
:1008E000EE2311F1626019966C9319970023F1F0D1
:1008F00052601B965C931B971123D1F032601D96BA
:100900003C931D97DD23B1F022601F962C931F9717
:10091000CC2391F0926051969C935197FF2371F0F4
:100920008260E8CE7D7FD9CF6D7FDDCF5D7FE1CF67
:100930003D7FE5CF2D7FE9CF9D7FEDCF8D7FDACE57
:10094000DD2031F1716017967C931797EE2311F13A
:10095000616019966C9319970023F1F051601B9612
:100960005C931B971123D1F031601D963C931D972A
:10097000DD23B1F021601F962C931F97CC2391F0BB
:10098000916051969C935197FF2371F08160B2CE94
:100990007E7FD9CF6E7FDDCF5E7FE1CF3E7FE5CF1B
:1009A0002E7FE9CF9E7FEDCF8E7FA4CE0F931F9336
:1009B000CF938C01C0E06C2F606CC801FADD60E061
:1009C000C801F7DD61E0F801818D40D1CF5FCE3005
:1009D00091F7CF911F910F910895CF93DF93EC0181
:1009E000683008F067E06868CE01E3DD61E0898D7A
:1009F000DF91CF912BC1CF93DF93EC01662371F090
:100A000063E0CE01D6DD61E0898D20D164E4CE01C2
:100A1000D0DD61E0898DDF91CF9118C162E0F1CF27
:100A20001F920F920FB60F9211242F933F938F9323
:100A30009F93AF93BF938091FA009091FB00A09198
:100A4000FC00B091FD003091F90026E0230F2D3716
:100A500068F129E8230F0396A11DB11D2093F90029
:100A60008093FA009093FB00A093FC00B093FD00EC
:100A70008091FE009091FF00A0910001B0910101D2
:100A80000196A11DB11D8093FE009093FF00A093DD
:100A90000001B0930101BF91AF919F918F913F9160
:100AA0002F910F900FBE0F901F9018950296A11DC9
:100AB000B11DD4CF2FB7F8946091FA007091FB006C
:100AC0008091FC009091FD002FBF08953FB7F894EE
:100AD0008091FE009091FF00A0910001B091010172
:100AE00022B708B601FE05C02F3F19F00196A11DDF
:100AF000B11D3FBFBA2FA92F982F8827BC01CD0168
:100B0000620F711D811D911D43E0660F771F881FC5
:100B1000991F4A95D1F708950895CF92DF92EF92E9
:100B2000FF92CF93DF936B017C01D0DFEB01C11407
:100B3000D104E104F10461F0EFDFC8DF6C1B7D0B31
:100B4000683E7340A0F3C114D104E104F10439F408
:100B5000DF91CF91FF90EF90DF90CF90089581E0EB
:100B6000C81AD108E108F108C851DC4FE6CF80B7B8
:100B7000826080BF80B7816080BF83B7887F8360D9
:100B800083BF789489B7826089BF0895813039F432
:100B900080B78F7780BF80B78F7B80BF089582300A
:100BA00031F480B78F7D80BF80B78F7EF6CF8330E2
:100BB00039F48FB58F778FBD8FB58F7B8FBD08953B
:100BC0008430E9F78FB58F7D8FBD8FB58F7EF6CFDF
:100BD000CF93DF9387FD8FEF90E0FC01E45CFF4F44
:100BE0002491825B9F4FFC0184918823C9F090E09F
:100BF000880F991FFC01E659FF4FA591B491FC01A4
:100C0000E05AFF4FC591D49161110DC09FB7F89480
:100C10008C91209582238C938881282328839FBFE1
:100C2000DF91CF910895623051F49FB7F8943C91D1
:100C3000822F809583238C93E8812E2BEFCF8FB763
:100C4000F894EC912E2B2C938FBFEACF1F93CF9368
:100C5000DF93162F87FD8FEF282F30E0F901E65D37
:100C6000FF4F8491F901E45CFF4FD491F901E25BFD
:100C7000FF4FC491CC2399F0811188DFEC2FF0E075
:100C8000EE0FFF1FE05AFF4FA591B4918FB71111DE
:100C90000AC0F894EC91D095DE23DC938FBFDF91EE
:100CA000CF911F910895F894EC91DE2BF6CFBF926F
:100CB000CF92DF92EF92FF920F931F93CF93DF9328
:100CC000C82ED62EB42ED0E0C0E0022F10E087E070
:100CD000E82EF12CB8018C2FBB2019F0C7018C1B1A
:100CE0009D0B02C0759567958A95E2F761708C2D12
:100CF000ADDF61E08D2DAADF60E08D2DA7DF2196AD
:100D0000C830D10539F7DF91CF911F910F91FF9036
:100D1000EF90DF90CF90BF90089581B781BF27DF1C
:100D2000D0D939DAFECF97FB072E16F4009406D0FF
:100D300077FD08D02DD007FC05D03EF49095819525
:100D40009F4F0895709561957F4F0895A1E21A2EE7
:100D5000AA1BBB1BFD010DC0AA1FBB1FEE1FFF1F5F
:100D6000A217B307E407F50720F0A21BB30BE40BAF
:100D7000F50B661F771F881F991F1A9469F76095F6
:100D80007095809590959B01AC01BD01CF010895B0
:100D9000AA1BBB1B51E107C0AA1FBB1FA617B707A1
:100DA00010F0A61BB70B881F991F5A95A9F78095BD
:100DB0009095BC01CD010895EE0FFF1F0590F491B1
:080DC000E02D0994F894FFCF27
:100DC8002C0100003F065B4F666D7D077F6F777CC7
:100DD800395E79713D76041E633848545C73673117
:100DE8006D783E1C1D766E5B00401F1C1F1E1F1E6B
:060DF8001F1F1E1F1E1F3D
:00000001FF
