:1000000012C02AC029C028C027C026C01DC124C0D4
:1000100023C022C021C020C01FC01EC01DC01CC0E4
:100020001BC01AC019C011241FBECFEDCDBF10E0F8
:10003000A0E6B0E0E0E7F6E002C005900D92AA3637
:10004000B107D9F720E0AAE6B0E001C01D92A337BE
:10005000B207E1F7F3D00AC3D3CF8FEF87BB8FE7A7
:1000600081BB08954F925F926F927F928F929F9281
:10007000AF92BF92CF92DF92EF92FF92CF93B9D01F
:100080008DD14B015C01CFEFC8BB88E082BB8AE019
:10009000C82ED12CE12CF12CC501B401A701960189
:1000A000A7D229013A01605A7F4FFB01808188BBAA
:1000B0006AE070E080E090E038D1C8BB80E182BBAC
:1000C000C301B20126E030E040E050E091D2605A36
:1000D0007F4FFB01808188BB6AE070E080E090E0A8
:1000E00024D1C8BB84E082BBC501B4012CE330E05D
:1000F00040E050E07DD2CA01B901A701960178D253
:10010000605A7F4FFB01808188BB6AE070E080E02D
:1001100090E00BD1C8BB80E482BBC501B40128E5E7
:1001200032E040E050E064D2CA01B901A701960173
:100130005FD2605A7F4FFB01808188BB6AE070E02C
:1001400080E090E0CF91FF90EF90DF90CF90BF9054
:10015000AF909F908F907F906F905F904F90E5C091
:100160009098889A8FEB93E00197F1F700C0000018
:10017000889890EA9A95F1F780B3E7E4F3E0319735
:10018000F1F700C00000817008959098889A82E08D
:100190008A95F1F700C0889895E29A95F1F70000EA
:1001A00080B398E79A95F1F78170089599E091509E
:1001B00071F09098889A22E02A95F1F700C080FDAE
:1001C000889820EA2A95F1F788988695F0CF0895C7
:1001D000CF93DF93D9E0C0E0D15039F0D6DF8795D7
:1001E00088278795C695C82BF7CF8C2FDF91CF91A5
:1001F0000895CF93F894B4DF8CECD8DF84E4D6DF95
:10020000C4DF8823E9F3ACDF8CECD0DF8EEBCEDFEC
:10021000DFDFC82FDDDF7894682F70E0762F662748
:100220006C0F711D072E000C880B990BEAD020E093
:1002300030E040E85DE349D1CF91089581B781BFB7
:100240009ED00BDF0FDFFECF1F920F920FB60F92E3
:1002500011242F933F938F939F93AF93BF938091DC
:100260006B0090916C00A0916D00B0916E00309188
:100270006A0026E0230F2D3768F129E8230F039643
:10028000A11DB11D20936A0080936B0090936C00B8
:10029000A0936D00B0936E0080916F0090917000FC
:1002A000A0917100B09172000196A11DB11D8093C3
:1002B0006F0090937000A0937100B0937200BF9193
:1002C000AF919F918F913F912F910F900FBE0F9003
:1002D0001F9018950296A11DB11DD4CF3FB7F89479
:1002E00080916F0090917000A0917100B0917200A8
:1002F00022B708B601FE05C02F3F19F00196A11DD7
:10030000B11D3FBFBA2FA92F982F8827BC01CD015F
:10031000620F711D811D911D43E0660F771F881FBD
:10032000991F4A95D1F708950895CF92DF92EF92E1
:10033000FF92CF93DF936B017C01D0DFEB01C114FF
:10034000D104E104F10461F0EFDFC8DF6C1B7D0B29
:10035000683E7340A0F3C114D104E104F10439F400
:10036000DF91CF91FF90EF90DF90CF90089581E0E3
:10037000C81AD108E108F108C851DC4FE6CF80B7B0
:10038000826080BF80B7816080BF83B7887F8360D1
:1003900083BF789489B7826089BF089504D0689438
:1003A000B1118DC0089570D088F09F5790F0B92F8B
:1003B0009927B751A0F0D1F0660F771F881F991FBA
:1003C0001AF0BA95C9F712C0B13081F077D0B1E018
:1003D000089574C0672F782F8827B85F39F0B93F28
:1003E000CCF3869577956795B395D9F73EF49095BC
:1003F0008095709561957F4F8F4F9F4F0895E8943A
:1004000009C097FB3EF490958095709561957F4F5C
:100410008F4F9F4F9923A9F0F92F96E9BB2793950A
:10042000F695879577956795B795F111F8CFFAF41A
:10043000BB0F11F460FF1BC06F5F7F4F8F4F9F4F4B
:1004400016C0882311F096E911C0772321F09EE8A9
:10045000872F762F05C0662371F096E8862F70E00F
:1004600060E02AF09A95660F771F881FDAF7880FE9
:100470009695879597F9089557FD9058440F551F05
:1004800059F05F3F71F04795880F97FB991F61F016
:100490009F3F79F087950895121613061406551F8D
:1004A000F2CF4695F1DF08C0161617061806991FF9
:1004B000F1CF86957105610508940895E894BB27EE
:1004C00066277727CB0197F908950AD080C071D0AD
:1004D00028F076D018F0952309F062C067C0EFCFFE
:1004E000CBDFA8F39923D9F35523C9F3950F50E037
:1004F000551FAA27EE27FF27BB27002408946795DE
:1005000020F4E20FF31FB41F0A1E220F331F441FF3
:10051000AA1F6695A9F7779530F4F30FB41F0A1E4A
:10052000121E08F46395330F441FAA1F221F7695ED
:1005300099F7879520F4B40F0A1E121E631F440F0B
:10054000AA1F221F331F8695A9F7862F712D602DB4
:1005500011249F5750408AF0E1F088234AF0EE0FB3
:10056000FF1FBB1F661F771F881F91505040A9F7C0
:100570009E3F510570F014C0A2CF5F3FECF3983E50
:10058000DCF3869577956795B795F795E7959F5F27
:10059000C1F7FE2B880F911D9695879597F90895C1
:1005A00097F99F6780E870E060E008959FEF80EC26
:1005B000089500240A9416161706180609060895C9
:1005C00000240A9412161306140605060895092E2F
:1005D0000394000C11F4882352F0BB0F40F4BF2B9E
:1005E00011F460FF04C06F5F7F4F8F4F9F4F0895DE
:1005F000052E97FB16F400940FD057FD05D014D0AC
:1006000007FC02D046F408C05095409530952195DE
:100610003F4F4F4F5F4F089590958095709561952E
:100620007F4F8F4F9F4F0895A1E21A2EAA1BBB1B2D
:10063000FD010DC0AA1FBB1FEE1FFF1FA217B307AE
:10064000E407F50720F0A21BB30BE40BF50B661FC4
:10065000771F881F991F1A9469F760957095809588
:1006600090959B01AC01BD01CF010895F894FFCF97
:0A067000C0F9A4B0999282F88090BE
:00000001FF
