:1000000037C044C043C042C041C040C053C03EC0DE
:100010003DC03CC03BC03AC039C038C037C036C014
:1000200035C034C033C000000000000000020000F2
:100030000001030400000000010202010408102076
:10004000400102040810204080040404010104045B
:1000500004040402020202020202020100003B0048
:1000600038000000320000003A0037000000310084
:1000700011241FBECFEDCDBF20E0A0E6B0E001C04F
:100080001D92A936B207E1F750D155C1B9CF61E051
:1000900087E0DCC061E087E017D168EE73E080E0C4
:1000A00090E079D060E087E00FD168EE73E080E007
:1000B00090E071C01F920F920FB60F9211242F93F0
:1000C0003F938F939F93AF93BF93809161009091E3
:1000D0006200A0916300B09164003091600026E05E
:1000E000230F2D3768F129E8230F0396A11DB11DB9
:1000F000209360008093610090936200A09363005E
:10010000B09364008091650090916600A0916700B3
:10011000B09168000196A11DB11D80936500909378
:100120006600A0936700B0936800BF91AF919F9164
:100130008F913F912F910F900FBE0F901F901895A8
:100140000296A11DB11DD4CF3FB7F89480916500F0
:1001500090916600A0916700B091680022B708B640
:1001600001FE05C02F3F19F00196A11DB11D3FBF33
:10017000BA2FA92F982F8827BC01CD01620F711DBE
:10018000811D911D43E0660F771F881F991F4A95B7
:10019000D1F708950895CF92DF92EF92FF92CF9317
:1001A000DF936B017C01D0DFEB01C114D104E104CA
:1001B000F10461F0EFDFC8DF6C1B7D0B683E73401C
:1001C000A0F3C114D104E104F10439F4DF91CF911B
:1001D000FF90EF90DF90CF90089581E0C81AD1088A
:1001E000E108F108C851DC4FE6CF80B7826080BFDC
:1001F00080B7816080BF83B7887F836083BF789436
:1002000089B7826089BF0895813039F480B78F77CC
:1002100080BF80B78F7B80BF0895823031F480B774
:100220008F7D80BF80B78F7EF6CF833039F48FB556
:100230008F778FBD8FB58F7B8FBD08958430E9F7A1
:100240008FB58F7D8FBD8FB58F7EF6CFCF93DF9328
:1002500087FD8FEF90E0FC01E85CFF4F2491865B07
:100260009F4FFC0184918823C9F090E0880F991F6B
:10027000FC01EA59FF4FA591B491FC01E45AFF4FEC
:10028000C591D49161110DC09FB7F8948C912095C0
:1002900082238C938881282328839FBFDF91CF916D
:1002A0000895623051F49FB7F8943C91822F809565
:1002B00083238C93E8812E2BEFCF8FB7F894EC91AA
:1002C0002E2B2C938FBFEACF1F93CF93DF93162F44
:1002D00087FD8FEF282F30E0F901EA5DFF4F849111
:1002E000F901E85CFF4FD491F901E65BFF4FC4913F
:1002F000CC2399F0811188DFEC2FF0E0EE0FFF1F87
:10030000E45AFF4FA591B4918FB711110AC0F89428
:10031000EC91D095DE23DC938FBFDF91CF911F91BD
:100320000895F894EC91DE2BF6CF81B781BF5DDFA5
:0A033000AEDEB0DEFECFF894FFCF82
:00000001FF
